:020000040800F2
:1000000058C102205D030008FB1400089B1400087F
:10001000F91400089D050008551B000800000000A9
:10002000000000000000000000000000990200082D
:100030002906000800000000F50200089D150008D0
:1000400077030008770300087703000877030008A8
:100050007703000877030008770300087703000898
:100060007703000877030008770300087703000888
:100070007703000877030008770300087703000878
:100080007703000877030008770300087703000868
:100090007703000877030008770300087703000858
:1000A0007703000877030008770300087703000848
:1000B0007703000877030008770300087703000838
:1000C0007703000877030008770300087703000828
:1000D00077030008F91A000877030008770300087F
:1000E0007703000877030008770300087703000808
:1000F00077030008770300087703000877030008F8
:1001000077030008770300087703000877030008E7
:1001100077030008770300087703000877030008D7
:1001200077030008770300087703000877030008C7
:1001300077030008770300087703000877030008B7
:1001400077030008770300087703000877030008A7
:100150007703000877030008770300087703000897
:100160007703000877030008770300087703000887
:1001700077030008770300087703000800000000F9
:100180007703000877030008770300087703000867
:100190007703000877030008770300087703000857
:1001A0007703000877030008770300087703000847
:1001B0007703000877030008770300087703000837
:1001C00077030008770300080000000077030008A9
:1001D0007703000877030008770300087703000817
:1001E0007703000877030008770300087703000807
:1001F000770300087703000800F002F800F03CF8ED
:100200000AA090E8000C82448344AAF10107DA4571
:1002100001D100F031F8AFF2090EBAE80F0013F087
:10022000010F18BFFB1A43F001031847F02E00001E
:10023000102F0000103A24BF78C878C1FAD85207AE
:1002400024BF30C830C144BF04680C607047000050
:100250000023002400250026103A28BF78C1FBD8CF
:10026000520728BF30C148BF0B6070471FB502F06E
:1002700043FF1FBD10B510BD00F05DF91146FFF73B
:10028000F5FF01F0C7FC00F07BF903B4FFF7F2FFC4
:1002900003BC01F060FC00002D4B19680868B0E851
:1002A000F04F80F30988BFF36F8F4FF0000080F3A9
:1002B000118870470000000008480068006880F35B
:1002C00008884FF0000080F3148862B661B6BFF36F
:1002D0004F8FBFF36F8F00DF00BF00BF08ED00E05E
:1002E000DFF80C00016841F470010160704700BF45
:1002F00088ED00E0EFF30980BFF36F8F144B1A68AD
:100300001EF0100F08BF20ED108A20E9F04F10609A
:1003100009B44FF0400072B680F31188BFF34F8FDD
:10032000BFF36F8F62B602F0E1F94FF0000080F387
:10033000118809BC19680868B0E8F04F1EF0100F6A
:1003400008BFB0EC108A80F30988BFF36F8F704745
:1003500020000220EFF30580704700000948804725
:1003600009480047FEE7FEE7FEE7FEE7FEE7FEE797
:10037000FEE7FEE7FEE7FEE704480549054A064BAF
:1003800070470000B5150008F901000858BB0220AD
:1003900058C1022058BD022058BD02207047032AD0
:1003A00040F2308010F0030C00F0158011F8013B92
:1003B000BCF1020F624498BF11F801CB00F8013B79
:1003C00038BF11F8013BA2F1040298BF00F801CB3D
:1003D00038BF00F8013B11F0030300F03180083A08
:1003E000C0F0088051F8043B083A51F804CBA0E86B
:1003F0000810F5E7121D5CBF51F8043B40F8043BC0
:10040000AFF30080D20724BF11F8013B11F801CBF4
:1004100048BF11F8012B24BF00F8013B00F801CBC5
:1004200048BF00F8012B704702F0FF0343EA0322A4
:1004300042EA024200F038B8704770477047704790
:1004400010B5203AC0F00B80B1E81850203AA0E86F
:100450001850B1E81850A0E81850BFF4F5AF5FEAA3
:10046000027C24BFB1E81850A0E8185044BF18C956
:1004700018C0BDE810405FEA827C24BF51F8043BFD
:1004800040F8043B08BF7047D20728BF31F8023B51
:1004900048BF11F8012B28BF20F8023B48BF00F8E5
:1004A000012B70474FF000020429C0F0128010F0B9
:1004B000030C00F01B80CCF1040CBCF1020F18BF40
:1004C00000F8012BA8BF20F8022BA1EB0C0100F0D3
:1004D0000DB85FEAC17C24BF00F8012B00F8012BA6
:1004E00048BF00F8012B70474FF0000200B51346DB
:1004F00094469646203922BFA0E80C50A0E80C5044
:10050000B1F12001BFF4F7AF090728BFA0E80C50F4
:1005100048BF0CC05DF804EB890028BF40F8042BED
:1005200008BF704748BF20F8022B11F0804F18BF5A
:1005300000F8012B7047754600F02CF8AE46050018
:100540006946534620F00700854618B020B5FFF7EE
:1005500013FFBDE820404FF000064FF000074FF0BA
:1005600000084FF0000B21F00701AC46ACE8C009D1
:10057000ACE8C009ACE8C009ACE8C0098D467047DA
:1005800010B50446AFF300802046BDE81040FFF7E9
:100590007CBE000000487047F4BA0220FEE700006D
:1005A00070B4BFF34F8FBFF36F8F1A4900200860FC
:1005B000194D296841F400312960BFF34F8FBFF313
:1005C0006F8F16490860BFF34F8F081F006843F60E
:1005D000FF76134AC0F34E3CC0F3C90406EA4C113F
:1005E000204641EA80731360401EFAD2BCF1010C30
:1005F000F4D2BFF34F8F286840F480302860BFF3F7
:100600004F8FBFF36F8F0748016841F0040101600D
:1006100070BC704750EF00E014ED00E084ED00E0A6
:1006200060EF00E09CEF00E0704790F83510022981
:1006300003D08021416501207047052180F83510E5
:100640000068016821F0010101600020704700008E
:100650002DE9F84FDFF830920022DFF828820F27CB
:1006600009F1040A4FF0010E0B680EFA02F52B4057
:10067000AB4240F00181D1F804C0BCF1020F18BFB9
:10068000BCF1120F15D14FEAD20C00EB8C0CDCF848
:1006900020604FEA42744FEAD46407FA04FB26EA6A
:1006A0000B06D1F810B00BFA04F444EA0604CCF8B7
:1006B000204006684FEA420C91F804B04FF0030462
:1006C0000BF0030B04FA0CF40BFA0CFB26EA0406FD
:1006D0004BEA060606604E68012E18BF022E03D0B4
:1006E000112E18BF122E14D18668D1F80CB026EA4C
:1006F00004060BFA0CFB4BEA06068660466826EAFF
:1007000005050E79C6F3001606FA02F646EA050557
:100710004560C56825EA04048D6805FA0CFC4CEABE
:10072000040CC0F80CC0D1F804C01CF0805F7CD071
:10073000D8F800C04CF4804CC8F800C0D8F800C00D
:100740000CF4804CCDF800C022F0030C0CF1804575
:1007500005F59835D5F808C84FEA82744FEA147445
:1007600007FA04F62CEA0606A0F1804CBCF5003C22
:1007700048D0A0F1804CBCF5013C08BF4FF0010C03
:1007800040D0A0F1804CBCF5023C08BF4FF0020CF9
:1007900038D0A0F1804CBCF5033C08BF4FF0030CEF
:1007A00030D0A0F1804CBCF5043C08BF4FF0040CE5
:1007B00028D0A0F1804CBCF5053C08BF4FF0050CDB
:1007C00020D0A0F1804CBCF5063C08BF4FF0060CD1
:1007D00018D0A0F1804CBCF5073C08BF4FF0070CC7
:1007E00010D0A0F1804CBCF5083C08BF4FF0080CBD
:1007F00008D0A0F1804CBCF5093C0CBF4FF0090CAF
:100800004FF00A0C0CFA04FC4CEA060CC5F808C8B8
:10081000D9F800C04C682CEA030C14F4803F18BFD0
:100820004CEA030CC9F800C000E025E0DAF800C08B
:100830004C682CEA030C14F4003F18BF4CEA030C7C
:10084000CAF800C0114CD4F800C04D682CEA030C63
:1008500015F4801F18BF4CEA030CC4F800C00C4C00
:10086000D4F800C04D682CEA030C15F4001F18BF23
:100870004CEA030CC4F800C0521C102AFFF4F4AE7A
:10088000BDE8F88F44380240003C0140083C01407C
:100890000C3C0140002A08BF090481617047000038
:1008A00001480068704700001C00022002480168EF
:1008B000491C0160704700001C000220074810B569
:1008C000016841F400710160052000F05DF80F201F
:1008D00000F006F800F018F8002010BD003C0240BF
:1008E00010B5044607484FF47A720068B0FBF2F086
:1008F00000F0C6FB00222146501E00F013F8002035
:1009000010BD00000C0002207047012200F01F0102
:1009100002FA01F14009800000F1E020C0F8001166
:1009200070470000174B4DF8044D1B68C3F30223BA
:10093000C3F1070CBCF1040F88BF4FF0040C1C1D61
:10094000072C34BF0023DB1E012404FA0CFCACF19D
:10095000010C0CEA0101994004FA03F35B1E1A40F2
:10096000114300284FEA0111B8BF00F00F0000F159
:10097000E020B4BF80F8141D80F800145DF8044B2B
:10098000704700000CED00E0074A00F00700116816
:100990004FF6FF03194041EA002040F0FD7040F09F
:1009A00080601060704700000CED00E01C4838B516
:1009B000016841F08051016000681A4C00F08050DD
:1009C0000090206840F480302060FFF769FF054602
:1009D000606810F4803F09D1FFF762FF401BB0F55B
:1009E0007A7F14D8606810F4803FF5D0206840F416
:1009F00000302060FFF754FF0546606810F4003FA8
:100A00000BD1FFF74DFF401BB0F57A7F01D90320D2
:100A100038BD606810F4003FF3D0002038BD0000FE
:100A200040380240007000402DE9F047DFF868814F
:100A300004460D46D8F8000000F00F00A8420CD282
:100A4000D8F8000020F00F002843C8F80000D8F8BC
:100A5000000000F00F00A84270D120784F4F10F036
:100A6000020F05D03868A16820F0F0000843386014
:100A7000207810F0010F4ED060684949012820D03D
:100A80000968022822D011F0020F57D0396821F0EE
:100A9000030108433860FFF703FF0646606841F230
:100AA0008839012816D00228386800F00C0021D0BF
:100AB000F8B1FFF7F5FE801B484528D90320BDE8B3
:100AC000F087096811F4003FE0D137E011F0007FB2
:100AD000DCD133E0386800F00C0004281BD0FFF7AD
:100AE000DFFE801B4845E9D8386800F00C00042878
:100AF000F5D110E008280ED0FFF7D2FE801B484544
:100B0000DCD8386800F00C000828F5D103E038681C
:100B100010F00C0FCDD1D8F8000000F00F00A84263
:100B20000FD9D8F8000020F00F002843C8F80000C3
:100B3000D8F8000000F00F00A84202D00120BDE864
:100B4000F087207810F0040F05D03868E16820F4B1
:100B5000E05008433860207810F0080F06D038685D
:100B6000216920F4604040EAC100386000F04EF88E
:100B70003968F02292FAA2F201F0F001B2FA82F2A0
:100B8000D140084A515CC840074908600F20FFF770
:100B9000A7FE0020BDE8F087003C02400838024074
:100BA00000380240023100080C00022008480949C0
:100BB000006809684FF4E05292FAA2F201F4E051A1
:100BC000B2FA82F2D140044A515CC840704700003A
:100BD0000C00022008380240123100080848094978
:100BE000006809684FF4604292FAA2F201F4604191
:100BF000B2FA82F2D140044A515CC840704700000A
:100C00000C00022008380240123100082148006818
:100C100010F00C01204808BF7047DFF880C004299D
:100C200004BF60467047082918BF70474DF8044D4F
:100C30001B4A1168136801F03F0113F4800F47F657
:100C4000C0730BD0BCFBF1F01168194093FAA3F309
:100C5000B3FA83F3D94000FB01F00AE0B0FBF1F0F6
:100C60001168194093FAA3F3B3FA83F3D94000FB58
:100C700001F011684FF440325DF8044B92FAA2F291
:100C800001F44031B2FA82F2D140491C4900B0FB74
:100C9000F1F07047083802400024F40040787D01EC
:100CA000043802402DE9F84FDFF8A88304460078A5
:100CB000A8F1040710F0010FA7F104055AD0D8F8E5
:100CC000000000F00C00042809D0D8F8000000F063
:100CD0000C0008280CD1386810F4800F08D0286860
:100CE00010F4003F46D06068002800F0AF8141E07A
:100CF0006068B0F5803F04BF286840F480300AD0B7
:100D000010B1B0F5A02F11D0286820F480302860F1
:100D1000286820F4802028606068D0B1FFF7C0FD0B
:100D20000646286810F4003F08D023E0286840F405
:100D300080202860286840F48030ECE7FFF7B0FDA1
:100D4000801B642800F22581286810F4003FF5D04C
:100D500010E0FFF7A5FD0646286810F4003F09D013
:100D6000FFF79EFD801B642800F21381286810F4B1
:100D7000003FF5D1207810F0020F50D0D8F80000D5
:100D80004FF0F80910F00C0F18D0D8F8000000F060
:100D90000C00082804BF386810F4800F0ED0E068FB
:100DA0000028286828D040F001002860FFF778FD6F
:100DB0000646286810F0020F09D011E0286810F0EC
:100DC000020F1CBFE06801280AD000F03FB9FFF70E
:100DD00067FD801B02287DD8286810F0020FF6D02E
:100DE000286899FAA9F22169B2FA82F220F0F80093
:100DF00091400843286012E020F001002860FFF7CE
:100E00004FFD0646286810F0020F08D0FFF748FD96
:100E1000801B02285ED8286810F0020FF6D12078D7
:100E200010F0080F33D0DFF8309260690028D9F84D
:100E3000000016D040F00100C9F80000FFF730FDB7
:100E40000646D9F8000010F0020F20D1FFF728FD68
:100E5000801B02283ED8D9F8000010F0020FF5D010
:100E600015E020F00100C9F80000FFF719FD064663
:100E7000D9F8000010F0020F09D0FFF711FD801B18
:100E8000022827D8D9F8000010F0020FF5D12078F9
:100E900010F0040F63D07148016841F08051016087
:100EA00000686F4E00F080500090306840F4807011
:100EB0003060FFF7F5FC8146306810F4807F0BD17D
:100EC000FFF7EEFCA0EB0900642862D8306810F44C
:100ED000807F00E05DE0F3D0A068624E012804BF8F
:100EE000306840F0010009D008B1052813D03068FF
:100EF00020F001003060306820F004003060A0680D
:100F000041F2883AD0B1FFF7CBFC8146306810F04F
:100F1000020F08D023E0306840F0040030603068F1
:100F200040F00100EAE7FFF7BBFCA0EB09005045E9
:100F30002FD8306810F0020FF5D010E0FFF7B0FCAA
:100F40008146306810F0020F09D0FFF7A9FCA0EB32
:100F5000090050451DD8306810F0020FF5D1A06986
:100F6000E8B3D8F8001001F00C0108296ED002286F
:100F7000286820F0807028600ED0FFF791FC0446AE
:100F8000286810F0007F5ED0FFF78AFC001B022863
:100F900055D90320BDE8F88FFFF782FC0646286884
:100FA00010F0007F08D0FFF77BFC801B0228F0D8F0
:100FB000286810F0007FF6D1D4E9070147F6C07227
:100FC0004FF0FF3392FAA2F20843616AB2FA82F25A
:100FD0009140A26A03EB52024FF4403300E032E04A
:100FE00093FAA3F3B3FA83F39A4011434FF070627C
:100FF0000843E16A92FAA2F2B2FA82F291404FF00B
:10100000E0420843216B92FAA2F2B2FA82F29140D6
:1010100008433860286840F080702860FFF740FC83
:101020000446286810F0007F0DD1FFF739FC001B43
:101030000228AED8286810F0007FF6D003E02868B8
:1010400010F0007FA0D10020BDE8F88F0120BDE89E
:10105000F88F0000083802407438024040380240DF
:1010600000700040703802404FF0E0210428086909
:101070000CBF40F0040020F004000861704700003D
:10108000401EB0F1807F24BF012070474FF0E02167
:101090004861F020044A82F8140D0020886107207E
:1010A00008610020704700000FE000E0704790F8F2
:1010B000691090F86A0008437047000070B5016835
:1010C0000446C8690A688B6810F00F0F4FF02005BE
:1010D00051D040F2011C13EA0C0F7DD010F0010F2B
:1010E00018BF12F4807F07D04FF0010CC1F820C068
:1010F000E16E41F00101E16610F0020F18BF13F03C
:10110000010F08D0D4F800C00221CCF82010E16E05
:1011100041F00401E16610F0040F18BF13F0010F55
:1011200008D0D4F800C00421CCF82010E16E41F0C2
:101130000201E16610F0080F0CD002F0200103F06C
:101140000103194306D0236808211962E16E41F0BA
:101150000801E166E16E002908BF70BD10F0200FA4
:101160001EBF12F0200F204600F0F7FAE06E10F0DC
:10117000080F10D10AE010F0200F18BF12F0200F56
:1011800039D02046BDE8704000F0E7BA206880689A
:1011900010F0400F29D02068016821F4907101609F
:1011A0002068816821F00101816084F86A5020681C
:1011B000816811F0400F14D0816821F040018160F6
:1011C000606E70B12F490165606EFFF72EFA00283E
:1011D00008BF70BD606E00E00DE0016DBDE87040BD
:1011E00008472046FFF762FF70BD2046FFF75EFF0D
:1011F0000020E06670BD10F0800F18BF12F0800F65
:101200002FD094F86900212818BF70BDB4F852009F
:10121000A0B1A068B0F5805F04BF20690028E06C31
:1012200016D000F10101E164216800788862B4F809
:101230005200A0F10100A4F8520070BD086820F02F
:10124000800008602068016841F04001016070BDC5
:101250000088C0F308008862E06C00F10200E064DE
:10126000E5E710F0400F14BF12F0400F70BD2046AC
:101270000A6822F040020A6084F8695000F00CF914
:1012800070BD000047170008002804BF0120704708
:1012900010B5044690F8690028B9002084F8680069
:1012A000204600F029F8242084F8690020680168AD
:1012B00021F001010160204600F090FA012808BFEA
:1012C00010BD606A00281CBF204600F09FF920680E
:1012D000416821F4904141602068816821F02A0131
:1012E00081602068016841F0010101602046BDE88D
:1012F000104000F0F8B9000010B5006886B0A0F109
:101300008041B1F588311CBF06B010BD1848016896
:1013100041F001010160006800F0010005901548EE
:10132000016841F01001016000680121124C00F0D9
:10133000100005904FF4007000900220CDE90101EB
:1013400003900720694604902046FFF781F9211594
:10135000204600916946FFF77BF92520FFF7D5FA73
:10136000032225201146FFF7DDFA06B010BD00006C
:1013700030380240443802400000024090F86A30A1
:10138000202B49D1002912BF002A0120704790F874
:101390006830012B40D0012380F868304165A0F807
:1013A0005820A0F85A20FF228168B1F5805F05D04F
:1013B0007F2351B1B1F1805F0CD012E001690029A7
:1013C00008BF40F2FF1102D109E0016909BBA0F892
:1013D0005C2006E00169002918BF3F2119D0A0F860
:1013E0005C100021C166222280F86A2080F8681013
:1013F00001680A6842F480720A6001688A6842F0F3
:1014000001028A600068016841F02001016000204B
:101410007047A0F85C30E4E7022070474DF8044DB7
:101420000068A0F18041B1F588311CBF5DF8044B24
:101430007047174A508810F4004F1CBF5DF8044BEA
:10144000704710F4804F4FF000031149097808D01D
:101450000A2908BF40F4004016D053805DF8044BC1
:1014600070470D2908BF40F480400DD0094CC0F3EF
:101470000D0C401C80B2C72804F80C1050809CBF93
:101480005DF8044B7047E8E750805DF8044B704707
:10149000180002208C0002207047FEE7144810B5A7
:1014A00086B0016841F00201016000686946114C94
:1014B00000F00200059044F28100009001200190AC
:1014C0000290032003902046FFF7C2F80122204635
:1014D0001146FFF7DFF9012220468021FFF7DAF9F4
:1014E000012220469103FFF7D5F906B010BD000098
:1014F0003038024000040240FEE77047DFF894C035
:1015000010B594B0DCF8004044F08054CCF80040B2
:10151000DCF800C00CF0805CCDF848C0DFF878C083
:10152000DCF8004044F44044CCF80040DCF800C053
:1015300002240CF4404CCDF848C04FF0010CCDF81B
:1015400000C04FF4803CCDF804C04FF4800CCDE9CE
:101550000810CDE90A23CDE9064C6846FFF7A2FB47
:1015600000B1FEE7FFF722FA00B1FEE70F20CDE958
:101570000D0400200F904FF4A05010904FF48050B5
:10158000119007210DA8FFF74FFA002804BF14B0EF
:1015900010BDFEE7403802400070004010B501F079
:1015A000E3FB012818BF01F0F3F8BDE81040FFF796
:1015B0007DB900000F48016841F4700101600E48D8
:1015C000016841F0010101600C4A002111600268CC
:1015D00022F4102222F080720260031D084A1A6071
:1015E000026822F48022026006480160580606491B
:1015F0000860704788ED00E000380240083802407B
:10160000103000240C38024008ED00E090F824105F
:1016100011F0010F06D001684A68836A22F4003293
:101620001A434A6090F8241011F0020F06D00168A6
:101630004A68C36A22F480321A434A6090F8241040
:1016400011F0040F06D001684A68036B22F480226F
:101650001A434A6090F8241011F0080F06D0016870
:101660004A68436B22F400421A434A6090F82410FF
:1016700011F0100F06D001688A68836B22F4805243
:101680001A438A6090F8241011F0200F06D00168E8
:101690008A68C36B22F400521A438A6090F82410BF
:1016A00011F0400F11D001684A68036C22F48012D7
:1016B0001A434A60016CB1F5801F06D101684A687F
:1016C000436C22F4C0021A434A6090F8241011F0CF
:1016D000800F08BF704701684A68806C22F40022BE
:1016E000104348607047F8B500260446C666FFF709
:1016F000D7F80746206800686FF07E4510F0080FA5
:1017000008D000223B464FF400112046009500F01F
:10171000B9F968B92068006810F0040F0AD00022F7
:101720003B464FF480012046009500F0ABF908B12C
:101730000320F8BD202084F8690084F86A000020A6
:1017400084F86860F8BD10B5806B0021A0F85A10CD
:10175000A0F85210FFF7AAFC10BD10B5B0F85C203D
:1017600090F86A300168222B05D0886940F00800A3
:101770008861022010BD8368B3F5805F04BF0369F0
:10178000002B23D0496A01EA0202416D01F10103F5
:1017900043650A70B0F85A10A1F101010904090C5F
:1017A000A0F85A101CBF002010BD01680A6822F47E
:1017B00090720A6001688A6822F001028A60202122
:1017C00080F86A10FFF72AFE002010BD436D496AB9
:1017D00011401980416D891C4165DBE770B50446F5
:1017E00080681021002223691546D4F81CC01843D4
:1017F000636943EA0C0303432068D0F800C09D4EA0
:101800000CEA060C4CEA0303036020684368D4F832
:101810000CC023F4405343EA0C034360236AA069DD
:1018200003432068D0F808C02CF4306C4CEA030362
:1018300083602068904BA0F1804CBCF5883C23D09D
:10184000A0F1804CBCF5884C29D0A0F1804CBCF5AF
:10185000904C2FD0A0F1804CBCF5984C35D0A0F125
:10186000804CBCF5A04C3BD0A0F1804CBCF58A3C30
:1018700044D0A0F1804CBCF5F04C4FD0A0F1804C8E
:10188000BCF5F84C58D06CE01B6813F0030343D050
:10189000012B63D0022B5FD0032B61D061E01B686A
:1018A00013F00C0356D0042B58D0082B54D00C2B1B
:1018B00056D056E01B6813F030034BD0102B4DD0A0
:1018C000202B49D0302B4BD04BE01B6813F0C003CA
:1018D00040D0402B42D0802B3ED0C02B40D040E0A7
:1018E0001B6813F4407335D0B3F5807F36D0B3F561
:1018F000007F31D0B3F5407F32D032E01B6813F463
:10190000406309D0B3F5806F28D0B3F5006F23D0C2
:10191000B3F5406F24D024E0012122E01B6813F4CA
:10192000405317D0B3F5805F18D0B3F5005F13D0E4
:10193000B3F5405F14D014E01B6813F4404309D0A2
:10194000B3F5804F0AD0B3F5004F05D0B3F5404F43
:1019500006D006E0002104E0022102E0042100E0BC
:101960000821E369B3F5004F08D009297FD2DFE8E9
:1019700001F046525E7E677E7E7E7400092935D274
:10198000DFE801F0050F1934213434342B00FFF760
:101990000DF94100606801EB5001B1FBF0F082B23B
:1019A00025E0FFF71BF94100606801EB5001B1FB36
:1019B000F0F082B21BE06068304901EB5001B1FBEE
:1019C000F0F082B213E0FFF721F94100606801EB0B
:1019D0005001B1FBF0F082B209E060684FF4803151
:1019E00001EB5001B1FBF0F082B200E0012522F0E2
:1019F0000F00C2F3420108432168C86038E0FFF7D6
:101A0000D5F80146606801EB5001B1FBF0F02168A8
:101A100080B2C8602CE0FFF7E1F80146606801EB96
:101A20005001B1FBF0F0216880B2C86020E061682D
:101A3000134A02EB5102B2FBF1F189B2C16017E027
:101A4000FFF7E4F80146606801EB5001B1FBF0F0EC
:101A5000216880B2C8600BE009E061684FF4004281
:101A600002EB5102B2FBF1F189B2C16000E0012545
:101A7000284670BDF369FFEF903802400048E80146
:101A80000024F4002DE9F041044600681E46174684
:101A9000069D8846C06931EA00000CBF0120002085
:101AA000B84226D1B5F1FF3F1AD025B1FEF7F8FEB6
:101AB000801BA84214D32068016821F4D071016012
:101AC0002068816821F001018160202084F869008C
:101AD00084F86A00002084F868000320BDE8F081E3
:101AE0002068C06938EA00000CBF01200020B8421D
:101AF000D8D00020BDE8F08170B5134D0024134804
:101B0000FFF7DCFA1148FFF7D2FA202807D0641C4F
:101B1000AC4204D80D48FFF7CAFA2028F7D10C4987
:101B200000240A480122FFF729FC002808BF70BDE5
:101B3000641CAC4288BF70BD012205490348FFF711
:101B40001DFC0028F4D170BDFFFF010054010220EC
:101B500018000220FEE7704710B504460420FFF786
:101B600083FA0D484FF47A730C490D4A44600968B2
:101B7000B2FBF1F2B3FBF1F101804FF0E02002FB88
:101B800004F2016941F0020101614261016941F021
:101B90000101016110BD0000100002200C000220B4
:101BA00040420F00094C012211462046FEF772FE0A
:101BB0004FF4FA7000F0AEFC002220460121FEF73F
:101BC00069FE4FF4FA7000F0A5FCECE70004024057
:101BD0000F4C012280212046FEF75CFE01222046A8
:101BE0009103FEF757FE4FF4FA7000F093FC0022C9
:101BF00020468021FEF74EFE002220464FF4804111
:101C0000FEF748FE4FF4FA7000F084FCE1E70000B4
:101C1000000402404DF804ED83B0FEF7C1FCFEF76E
:101C20004DFE0923022219214FF4D870FFF766FCFC
:101C3000D820FFF791FF4FF4E13000F08DFBFFF764
:101C40002DFC0849012000238022CDE9000109482C
:101C500005A100F0C7FF00F00BFD03B000205DF808
:101C600004FB00000000022073746172745F7461F1
:101C7000736B0000E92200082DE9F041194E0F4670
:101C80000446F5683068001D00F082FB48B93068F2
:101C9000012190F82C0001FA00F0316921EA0000DE
:101CA0003061B4F1FF3F07D137B13068BDE8F04192
:101CB000011D0D4800F0AABB30682C44AC424460C2
:101CC000306800F1040104D2B06BBDE8F04100F0CF
:101CD00080BB706B00F07DFBB06AA04288BFB4622D
:101CE000BDE8F08120000220B80202202DE9F04179
:101CF000856B002716460446026C82B1C6B1E068C7
:101D0000FEF74DFBE168206C091AE1602268914200
:101D100002D2A168081AE060022E19D115E02068ED
:101D2000B0B9A06801F09EF807460020A0600FE05F
:101D30006068FEF734FB216C606808446060A1684D
:101D4000884224BF2068606002E0002D18BF6D1E2D
:101D5000681CA0633846BDE8F0810000164E4FF0C5
:101D60008058144DDFF85490A6F1A0076868B8B108
:101D700000F058FBF068C468201D00F009FBA8685B
:101D8000401EA8606868401E686000F05BFB206B26
:101D900000F064FB204600F061FB68680028E7D192
:101DA00038680128E2D9C9F80080BFF34F8FBFF32C
:101DB0006F8FDBE720000220A402022004ED00E088
:101DC00016494DF8044D0A68824238BF1146FAD3CD
:101DD0004B6803EB010C844503D14068184448600C
:101DE0000846436803EB000C944518BF02600ED10F
:101DF000DFF82CC0DCF800C0624508BFC0F800C0A6
:101E000005D052681A4442600A6812680260814232
:101E100018BF08605DF8044B704700008000022086
:101E20007000022010B5DFF838C0002441609142F4
:101E3000006108D8D11A826991423CBF011DDCF8CB
:101E4000100004D208E0934203D98B4201D8012448
:101E500004E0011DDCF80C0000F0BBFA204610BDC8
:101E60005C00022073B500260098846CA06BE36BC5
:101E700098420CD294F945500A4669462046FFF72D
:101E800035FF0646681C18BF84F8450002D002B032
:101E9000304670BD606A0028F9D004F1240001F0DA
:101EA0001FF8002818BF0126F1E700002DE9F043D4
:101EB00085B0074600F066FF254E8046B068804535
:101EC00028BF002036D2F068006800282DD0F068C6
:101ED000C068C4680568201D00F05AFA616A20468F
:101EE0008847E06901281CD1A0692844A84206D986
:101EF0002461211D6060F06800F06BFA11E0316828
:101F00000020814669B1CDE90005029400F02CFF64
:101F100002284FF0000314D030680022694600F018
:101F2000ADFCF06800680028D1D1D6E90310C6E9FD
:101F3000030101203860C6F8088005B04046BDE8BE
:101F4000F08330684A46694600F098FCE9E70000F3
:101F50005C000220402072B680F31188BFF34F8FDF
:101F6000BFF36F8F62B6FEE76B4F8AB06B4D4FF0D9
:101F700080564FF00008E868016800290CBF4FF058
:101F8000010A4FF0000ABAF1000F06BFC068D0F88E
:101F900000904FF0000900F0A1FB01A8FFF786FFB9
:101FA0000446019830B300F0CDFF2868002269464E
:101FB00000F052FD0028DED00098002806DA019AD1
:101FC000DDE902019047009800286BDB029C606904
:101FD00000281CBF201D00F0DBF908A8FFF766FFF2
:101FE00000990A295ED2DFE801F04343438D7A8AE3
:101FF00043438D7ABAF1000F17D028690068002892
:102000000CBF4FF0010A4FF0000AA9EB0401286849
:10201000524600F059FA00F095FF0028C5D13E6005
:10202000BFF34F8FBFF36F8FBFE7A145EDD800F02F
:1020300089FFE868A246C068C468201D00F0A8F9BE
:10204000E069012810D1A0694B46524600EB090116
:102050002046FFF7E7FE38B100234A4619462046DE
:10206000CDF8008001F01AF8616A204688479CE7A5
:102070000199A2691144019A24618142616004D8E6
:10208000811AA069814204D233E0824234D98A4263
:1020900032D8616A20468847E069012832D102E0DF
:1020A00000F097F92EE001990020A26981461144C1
:1020B0002A683AB3CDE90401069400F055FE0228DF
:1020C0004FF0000305D02868002204A900F0D6FBD9
:1020D00018E0286804A94A4600F0D0FB12E00199F4
:1020E000A161014424618842616005D3A069002890
:1020F00008D92869211DD3E7E868211DD0E72046CB
:1021000000F0ACF928680022694600F0A5FC002820
:102110007FF452AF2FE7000004ED00E05C000220E6
:102120002DE9F843044600F07DF994F94560002E4E
:102130002EDDA56CFDB100940022A86BE96B8842EE
:1021400022D295F9457069462846FFF7CFFD8046B3
:10215000781C18BF85F8450003D0B8F1000F11D1E5
:1021600012E0686A0028F8D005F1240000F0B8FEFB
:102170000028F2D006E0606A50B104F1240000F0BB
:10218000AFFE08B100F04AFA701E46B2002ED0DC55
:102190004FF0FF3684F8456000F054F900F042F942
:1021A00094F94450002D0DDD206958B104F1100060
:1021B00000F096FE002818BF00F030FA681E45B205
:1021C000002DF1DC84F84460BDE8F84300F03AB932
:1021D0002DE9F0410025044600F080FA344E002736
:1021E00006F110023068002818BFF0681DD131498F
:1021F0004FF4384011F0070F06D0C81D20F007013A
:102200002C48081AC0F538400844083820F0070068
:10221000C2E90017431A306047600760C1E9000354
:10222000B3604FF000407360F06004423AD1002C7C
:1022300038D004F1080111F0070F04D001F00700B5
:10224000C0F10800014400292CD0706881429CBF75
:102250001948146826D862688A4205D22268002A82
:102260001CBF20461446F6D1326894421AD0026848
:1022700002F10805226802606068401A102805D93A
:102280006218506010466160FFF79AFD61687068DF
:10229000401A7060B268904238BFB060F06808437E
:1022A000C4E9007000F04EFE2846BDE8F081000051
:1022B00070000220F4020220800002204FF0807C97
:1022C00040F804CC074B21F0010140F8081C40F80D
:1022D0000C3C40F8202C6FF0020240F8242C4438CB
:1022E00070470000551F00084DF804ED83B000F062
:1022F00099F80E49022000233222CDE900010F484F
:102300000BA100F06FFC0E49032000233222CDE91F
:1023100000010F480BA100F065FC0E48006800F0BA
:1023200015F903B05DF804EB00F08CB8040002204E
:102330006C6564305F7461736B000000A51B00085E
:10234000080002206C6564315F7461736B000000EB
:10235000D11B0008000002200B490A4A10B5C1E950
:10236000002000208860C860086188610C204861F6
:102370000846FEF789FFBDE81040044901220248E3
:10238000FEF7FCBF0010014054010220180002209B
:10239000D0E9013201699A60D0E901235A604A68A4
:1023A000824204BF82684A60002202610868401EBF
:1023B0000860086870474FF0FF3200F10801C0E97B
:1023C0000112C160016100210160704700210161BB
:1023D00070474DF8044DD1F800C0BCF1FF3F0CBF71
:1023E000026900F1080205D053681C68644598BF73
:1023F0001A46F9D953684B6099608A605160086148
:102400000168491C01605DF8044B704742684A60EE
:1024100093688B6093685960916008610168491CFA
:1024200001607047402072B680F31188BFF34F8F70
:10243000BFF36F8F62B602480168491C01607047A4
:102440008800022004490868401E086018BF7047D1
:10245000002080F31188704788000220002808BF00
:10246000704770B50D4DA0F1080450F8040CE968F0
:10247000084208BF70BD2268002A18BF70BD88439B
:10248000606000F02BF96068696808446860204665
:10249000FFF796FCBDE8704000F054BD70000220CC
:1024A000084B002253F832C0BCF1000F03D0521C7D
:1024B000082AF7D3704743F8321003EBC201486093
:1024C00070470000C401022070B515460E46044650
:1024D000FFF7A8FF94F94400B0F1FF3F4FF0000070
:1024E00008BF84F8440094F94510B1F1FF3F08BFDC
:1024F00084F84500FFF7A6FFA06B28B904F124007B
:102500002A46314600F0A0F82046BDE87040FFF7AB
:1025100007BE000010B558B10A490A6B521C0A6385
:102520000021FFF7A9FB00F00DFD002818BF10BD2A
:102530004FF0805004490860BFF34F8FBFF36F8F97
:1025400010BD00002000022004ED00E070B504463C
:10255000FFF768FF294D002C08BF2C68201DFFF7EE
:1025600017FF68B9E06A264900EB800251F8221093
:1025700031B9012101FA00F0296921EA000028613E
:10258000A06A00281CBF04F11800FFF701FF686A69
:10259000401C68622868844207D11A48211DFFF751
:1025A00035FF6868401C686014E0A868401EA86099
:1025B000206BFFF753FF2046FFF750FF686B006862
:1025C00000280FBF4FF0FF30686BC068C06818BFAD
:1025D0004068A862FFF736FF6869002808BF70BD31
:1025E0002868844218BF70BD4FF0805006490860CB
:1025F000BFF34F8FBFF36F8F70BD0000200002202C
:1026000004020220A402022004ED00E002490A6A4A
:102610000260C96841607047200002200149012022
:10262000C861704720000220064A10B50C461268A7
:1026300002F11801FFF7CDFE2046BDE81040012150
:10264000FFF71ABB2000022070B50D46074914465B
:1026500009681831FFF7DAFE002C18BF4FF0FF357C
:1026600021462846BDE87040FFF706BB2000022047
:102670001548822210B582B0002414A12346CDE96A
:102680000040144800F0AEFA01281CBF02B010BD93
:1026900000F0C2FC01281CBF02B010BD402072B681
:1026A00080F31188BFF34F8FBFF36F8F62B60A4874
:1026B0004FF0FF31816201214161C46002B0BDE889
:1026C000104000F037B800004C00022049444C454F
:1026D000000000005D1D0008200002200248016B80
:1026E000491C016370470000200002200F4A106B54
:1026F00000281EBF0120D06170470020D061106902
:102700000B49B0FA80F0C0F11F0000EB800001EB34
:10271000800000F10803416849684160994204BFA4
:1027200049684160C86810607047000020000220BE
:1027300004020220124810B5016841F470010160E2
:10274000016841F0704101604FF0E020002101611B
:1027500081614FF47A730B4A1268B2FBF3F2521E96
:1027600042610722026108480160FDF7B9FD074890
:10277000016841F040410160FDF79EFD002010BD61
:1027800020ED00E00C0002208800022034EF00E081
:10279000402010B572B680F31188BFF34F8FBFF39E
:1027A0006F8F62B600F0F4FA18B104494FF0805010
:1027B0000860002080F3118810BD000004ED00E0E7
:1027C0002DE9F0410D00174606460CBF002006FB20
:1027D00005F05430FFF7FCFC040008BFBDE8F081B1
:1027E00004F15400002D0CBF24602060204601211C
:1027F000C4E90F6500F008F884F850700021204605
:10280000A164BDE8F081000070B50D460446FFF7F5
:1028100009FED4E90F12206801FB0200A06000202D
:10282000A063491E2068606001FB0200E0604FF079
:10283000FF3084F8440084F845005DB104F11000D5
:10284000FFF7B9FD04F12400FFF7B5FDFFF7FAFD2E
:10285000012070BD20690028F8D004F1100000F0BC
:102860003FFB0028F2D004494FF080500860BFF3CE
:102870004F8FBFF36F8FE9E704ED00E02DE9FF4FC5
:102880000026DFF848A183B01F464FF080598B46E1
:102890000446B046FFF7C6FDA06BE16B884207D344
:1028A000022F05D00598002840D0002E41D044E0EA
:1028B000A66B3A4659462046FFF718FAA56C05B3B1
:1028C000022F00D166BB0294A86BE96B884227D225
:1028D00095F9454002A93A462846FFF707FA064609
:1028E000601C18BF85F8450001D09EB918E0686AE1
:1028F0000028FAD005F1240000F0F2FA0028F4D004
:1029000008E0616A29B104F1240000F0E9FA38B165
:1029100000E028B1CAF80090BFF34F8FBFF36F8F6C
:10292000FFF790FD07B00120BDE8F08FFFF78AFDAB
:1029300023E06846FFF76AFE0126FFF783FDFFF7F5
:10294000CDFEFFF76FFD94F94400B0F1FF3F08BFE3
:1029500084F8448094F94500B0F1FF3F08BF84F843
:102960004580FFF76FFD05A9684600F009F940B101
:102970002046FFF7D5FB00F0E5FA07B00020BDE8E0
:10298000F08FFFF74FFDA06BE16B884214BF00256D
:102990000125FFF757FD9DB1059904F11000FFF7E0
:1029A00043FE2046FFF7BCFB00F0CCFA00287FF482
:1029B00071AFCAF80090BFF34F8FBFF36F8F69E715
:1029C0002046FFF7ADFB00F0BDFA63E704ED00E041
:1029D0002DE9F0419846154604464020EFF3118753
:1029E00072B680F31188BFF34F8FBFF36F8F62B65B
:1029F000A06BE26B904208D3B8F1020F18BF002021
:102A000003D087F31188BDE8F08194F945601A4638
:102A10002046FFF76BF9701C18BF84F8450001D001
:102A20000120EEE7A06C012648B141462046FFF7A1
:102A300019FA002818BF002DF2D02E60F0E7606A66
:102A40000028EDD004F1240000F04AFA002818BF55
:102A5000002DE5D0F1E700002DE9F7470026DFF86B
:102A60001C9183B08A464FF0805804463746FFF7E2
:102A7000D9FCA56B15B3226C5AB1E0681044E06034
:102A8000A168884224BF2068E06001465046FDF7F7
:102A900086FC681EA063206950B104F1100000F0AC
:102AA0001FFA28B1C9F80080BFF34F8FBFF36F8FB3
:102AB000FFF7C8FC06B00120BDE8F087059808B113
:102AC00036B109E0FFF7BEFC06B00020BDE8F08794
:102AD0006846FFF79BFD0126FFF7B4FCFFF7FEFDFC
:102AE000FFF7A0FC94F94400B0F1FF3F08BF84F861
:102AF000447094F94500B0F1FF3F08BF84F8457079
:102B0000FFF7A0FC05A9684600F03AF898B1204606
:102B1000FFF706FB00F016FAFFF784FCA06B002815
:102B20000CBF01250025FFF78DFC002D9FD006B0BE
:102B30000020BDE8F087FFF775FCA06B002814BFEC
:102B400000250125FFF77EFC95B1059904F12400CD
:102B5000FFF76AFD2046FFF7E3FA00F0F3F90028DB
:102B600085D1C9F80080BFF34F8FBFF36F8F7EE729
:102B70002046FFF7D5FA00F0E5F978E704ED00E02C
:102B80002DE9F0410D460446FFF74CFCDFF850C03C
:102B9000DCF80C0063682A68C11AB2F1FF3F08BF75
:102BA000002417D02668DCF82070BE4203D0834290
:102BB00098BF01240ED98A4209D9501A2860DCF83E
:102BC00020002060DCF80C006060002402E000209F
:102BD00028600124FFF736FC2046BDE8F0810000A4
:102BE000200002202DE9F84F81469A469000904639
:102BF000DDE90A570E460090FFF7EAFA5FEA000B9C
:102C00004FD05820FFF7E4FA040047D0C4F830B0A2
:102C1000A52200995846FDF707FC206B6FF00301D1
:102C200001EB8801084420F0070800202118325CDD
:102C300081F83420315C00291CBF401C0A28F5D3E0
:102C4000002684F83D60052D28BF0425201DE5627F
:102C5000C4E91256FFF7BAFB04F11800FFF7B6FB00
:102C60002461C5F105016462A161266584F85460A0
:102C7000524649464046FFF721FB002F206018BF0F
:102C80003C602546FFF7CEFB2F4EB068401CB0607D
:102C900030682E4F48B1706950B32FE05846FFF7A7
:102CA000DDFB4FF0FF30BDE8F88F3560B0680128DC
:102CB00008BF002422D104EB840007EB8000FFF75B
:102CC0007AFB641C052CF6D32148FFF774FB2148DE
:102CD000FFF771FB2048FFF76EFB2048FFF76BFB07
:102CE0001F48FFF768FB1A4870631430B06305E0B3
:102CF0003068E96AC06A884298BF3560706A01210D
:102D0000401C70622864E86A326981401143316175
:102D100000EB8000291D07EB8000FFF777FBFFF732
:102D200091FB706960B13068E96AC06A884207D275
:102D30000C494FF080500860BFF34F8FBFF36F8F87
:102D40000120BDE8F88F00002000022004020220CC
:102D5000680202207C02022090020220A4020220CB
:102D6000B802022004ED00E005484169002904BFD3
:102D700001207047006B00280CBF02200020704724
:102D8000200002200148C068704700002000022097
:102D90002DE9F047314F0026386B48B1B869401C27
:102DA000B861F869002818BF01263046BDE8F087F1
:102DB000F868451CFD604FF0FF3912D1786BB96B94
:102DC0007963B863386A401C3862786B0068002801
:102DD00008BFC7F8289004D0786BC068C068406806
:102DE000B862B86ADFF87880A84298BF4FF0010A4D
:102DF0000CD8786B006838B1786BC068C4686068BC
:102E000085420DD2B86201E0C7F828903868C06AE0
:102E100000EB800058F82000012888BF0126C0E799
:102E2000201DFFF7B5FAA06A00281CBF04F11800A6
:102E3000FFF7AEFAE06A3A690AFA00F11143396124
:102E400000EB8000211D08EB8000FFF7DFFAE06A4D
:102E50003968C96A884228BF0126CAE720000220D3
:102E60000402022010B504004FF0000131D0E06CE4
:102E7000401EE064A36CE26A9A422AD048BB201D3F
:102E8000FFF786FA144A0123144970B9E06A00EB8F
:102E9000800C52F82CC0BCF1000F06D1D1F810C044
:102EA00003FA00F02CEA00000861A06CE062C0F1B7
:102EB0000500A061E06AD1F810C0834043EA0C032A
:102EC0000B6100EB8000211D02EB8000FFF79EFAF2
:102ED0000121084610BD000004020220200002204B
:102EE00070B5C068C46804F11800FFF751FA124DBC
:102EF000286B012600281CBF04F118010F480AD0D6
:102F0000FFF784FAE06A2968C96A884286BF01200F
:102F1000EE61002070BD201DFFF73AFAE06A2A69D1
:102F200006FA00F111432961054900EB800001EB2D
:102F30008000211DE4E70000200002209002022012
:102F4000040202202DE9F0474FF00008FFF76AFA6B
:102F50002D4D286B401E2863286B00284ED1A86891
:102F600000284BD0294F38680126002818BFDFF809
:102F7000A0902CD0F868C46804F11800FFF708FA94
:102F8000201DFFF705FAE06A2A6906FA00F11143ED
:102F9000296100EB8000211D09EB8000FFF736FA64
:102FA000E06A2968C96A884228BFEE61386800284B
:102FB000E0D164B1686B2946006800280FBF4FF06C
:102FC000FF30486BC068C06818BF40688862AC6951
:102FD00044B1FFF7DDFE002818BFEE61641EF8D192
:102FE0000020A861E86948B10A494FF080504FF0CD
:102FF00001080860BFF34F8FBFF36F8FFFF722FA0E
:103000004046BDE8F0870000200002209002022028
:103010000402022004ED00E030B5002483B0FFF785
:1030200001FA154D2868A0B91448FFF7C4F91448EF
:10303000FFF7C1F911480022E8601021143028611F
:103040000520FFF7BDFB002828601CBF0DA1FFF77E
:1030500027FAFFF7F7F9286858B10C490420002334
:103060004FF48272CDE900010B4809A1FFF7BAFDC8
:10307000044603B0204630BD5C000220CC02022092
:10308000E0020220546D7251000000006000022036
:10309000546D722053766300691F000870B5154C9B
:1030A00084B09C4606461346089D00222068E8B17D
:1030B00006290296CDE9001312DAFFF755FE022821
:1030C0004FF0000305D0206800226946FFF7D6FBC9
:1030D0000BE020682A466946FFF7D0FB024605E070
:1030E000002362466946FFF773FC024604B01046AF
:1030F00070BD00005C0002204FF04070E1EE100A4D
:1031000070470000000000000000010203040607F1
:103110000809000000000102030400003C3100081F
:10312000000002208C00000034020008C8310008B2
:103130008C000220CCC000005002000800000000FB
:1031400000000000000000000024F4000000000067
:10315000000000000000000000000000000000006F
:10316000000000000000000000000000000000005F
:10317000000000000000000000000000000000004F
:10318000000000000000000000000000000000003F
:10319000000000000000000000000000000000002F
:1031A000000000000000000000000000000000001F
:1031B000000000000000000000000000000000000F
:0831C00000000000AAAAAAAA5F
:04000005080001F9F5
:00000001FF
